:100000000C9435010C9466010C9466010C94660105
:100010000C9466010C9466010C9466010C946601C4
:100020000C9466010C9466010C9466010C946601B4
:100030000C9466010C9466010C9466010C946601A4
:100040000C9466010C9466010C9466010C94660194
:100050000C9466010C9466010C9466010C946A067B
:100060000C9466010C94DE060C94B4060C946601A4
:100070000C9466010C9466010C9466010C94660164
:100080000C9466010C9466010C9466010C94660154
:100090000C9466010C9466010C9466010C94660144
:1000A0000C9466010C9466010C9466010C94660134
:1000B0000C9466010C9466010C9466010C94660124
:1000C0000C9466010C9466010C9466010C94660114
:1000D0000C9466010C9466010C9466010C94660104
:1000E0000C9466010C9449030C9453030C94D902AC
:1000F0000C9445030C941C030C94BC040C9437041E
:100100000C9420030C943B030C9415040C943F03B3
:100110000C9406040C9431030C946F040C94DE02CE
:100120000C944D030C9437030C9424030C94290471
:100130000C942D030C9427030C94D9030C941407EE
:100140000C9457030C94180300002100240027008E
:100150002A002D00300033000101000004010701D6
:100160000A0100002200250028002B002E0031008B
:10017000340002010000050108010B0100000A0B18
:1001800002090C0D0E080703040100000000000026
:10019000000000000000000000000000000000005F
:1001A000000000000000000012111000000000001C
:1001B000000000000000000000000000000000003F
:1001C0000000000020002300260029002C002F0042
:1001D00032000001000003010601090105050505C3
:1001E000070508080808020202020A0A08080404AF
:1001F00004040101010101010101030303030303DD
:100200000303040707070C0C0C0C0C0C0C0C02026B
:10021000020206060606060606060B0B0B0B0B0B68
:100220000B0B0102102020080810204010204080F5
:1002300002010201080402010102040810204080AA
:100240008040201008040201800402018040201038
:100250000804020108040201010204081020408081
:100260000102040810204080140711241FBECFEFA4
:10027000D1E2DEBFCDBF00E00CBF12E0A0E0B2E0F3
:10028000E2EEF7E100E00BBF02C007900D92AC3543
:10029000B107D9F723E0ACE5B2E001C01D92A73168
:1002A000B207E1F711E0C5E3D1E000E006C0219715
:1002B0000109802FFE010E94E70BC433D10780E0C3
:1002C0000807A9F70E9461070C94EF0B0C9400003B
:1002D000CF92DF92EF92FF92CF93DF93B0910B0317
:1002E000A0E08111AB2F80910C0390E0880F991F43
:1002F000AC014E535E4FC0901103D0901203E090BA
:100300001303F090140330E020E0FA01C591D4917A
:10031000E881B90190E080E0EB23EA130AC02F5F87
:100320003F4F6C157D058E059F0578F36FEF7FEFCE
:10033000CB01DF91CF91FF90EF90DF90CF900895A8
:10034000CF93DF9390E0FC01EE5DFD4F249184524A
:100350009E4FFC0184918823D1F090E0880F991F73
:10036000FC01E85BFE4FA591B491FC01EE59FE4FF4
:10037000C591D491623071F49FB7F8943C91822F6B
:10038000809583238C93E8812E2B28839FBFDF9158
:10039000CF9108958FB7F894EC912E2B2C938FBFAB
:1003A000F6CF90917B00977F90937B00865380647B
:1003B00080937C0080917A00806480937A008091A1
:1003C0007A0086FDFCCF80917800909179000895A5
:1003D0003FB7F89480915F0290916002A091610212
:1003E000B091620226B5A89B05C02F3F19F0019677
:1003F000A11DB11D3FBFBA2FA92F982F8827BC017F
:10040000CD01620F711D811D911D42E0660F771FA6
:10041000881F991F4A95D1F708958F929F92AF92A6
:10042000BF92CF92DF92EF92FF924B015C010E944C
:10043000E8016B017C010E94E8016C197D098E09BD
:100440009F09683E734081059105A8F321E0821A57
:100450009108A108B10888EEC80E83E0D81EE11CFF
:10046000F11C81149104A104B10429F7FF90EF90CD
:10047000DF90CF90BF90AF909F908F9008958F9214
:100480009F92AF92BF92EF92FF920F931F93CF93E1
:10049000DF93CDB7DEB7C054D1400FB6F894DEBFBE
:1004A0000FBECDBF2FB7F894809163029091640284
:1004B000A0916502B09166022FBF40910D0350914B
:1004C0000E0360910F03709110038C019D01041BBA
:1004D000150B260B370BB901A801403D57406105AC
:1004E0007105A0F480911503C05CDE4F0FB6F8943F
:1004F000DEBF0FBECDBFDF91CF911F910F91FF9057
:10050000EF90BF90AF909F908F90089580930D03D0
:1005100090930E03A0930F03B0931003109208035F
:100520001092070310920603109205031092040321
:1005300062E0809109030E94A00161E070E080E028
:1005400090E00E940D0261E0809109030E94A001E9
:100550002091090330E0F901E458FE4F8491F9013C
:10056000EE5DFD4F949124523E4FF90124912223D8
:1005700009F433C0882311F181508231F8F4E82F57
:10058000F0E08827E953FD4F8F4F0C94E70B2003D1
:100590002403D90218031C03DE0227032D033103B1
:1005A00037033B033F0345034903DE024D03530377
:1005B0005703809180008F7780938000E22FF0E0D6
:1005C000EE0FFF1FEE59FE4FA591B4918FB7F8942F
:1005D000EC9190959E239C938FBF80910A03855147
:1005E000823008F068C08BE291E10197F1F762E098
:1005F000809109030E94A0018091160390E082304F
:10060000910538F0880F991F880F991F059701975A
:10061000F1F7F89480E00E9468016F3F7F4F8F4FA1
:100620009F4F09F04FC010921503789480E05CCF83
:10063000809180008F7DC0CF80918000877FBCCF6C
:1006400084B58F7784BDBACF84B58F7DFBCF809181
:10065000B0008F778093B000B1CF8091B0008F7DD4
:10066000F9CF809190008F7780939000A7CF8091F1
:1006700090008F7DF9CF80919000877FF5CF80919A
:10068000A0008F778093A00099CF8091A0008F7DEC
:10069000F9CF8091A000877FF5CF809120018F77DF
:1006A000809320018BCF809120018F7DF9CF8091A5
:1006B0002001877FF5CF64E170E080E090E00E9448
:1006C0000D0295CF81E00E9468016F3F7F4F8F4FF1
:1006D0009F4F09F4A8CF9E012F5F3F4F79015E0124
:1006E0003FEBA31A3EEFB30A870180E00E94680146
:1006F000F801608371838283938381E00E946801A3
:10070000F8016483758386839783085F1F4FA01663
:10071000B10659F7789430E020E0F70180809180AD
:10072000A280B3804481558166817781FFEF8F1667
:100730009F06AF06BF0631F04F3F0FEF500760072F
:10074000700719F41092150371CFF90183E0F59544
:10075000E7958A95E1F7EC5FFC4F8081880F84165E
:100760009506A606B70618F180832F5F3F4F18E065
:10077000E10EF11C2832310581F6409108032091E9
:10078000040380910503280F3327331F809106034C
:10079000280F311D80910703820F932F911D9927F8
:1007A0004817190679F681E0809315039DCE816084
:1007B000DBCFAF92BF92CF92DF92EF92FF920F9377
:1007C0001F93CF93DF936C017B018B01040F151FE7
:1007D000EB015E01AE18BF08C017D10759F069914F
:1007E000D601ED91FC910190F081E02DC6011995A3
:1007F000892B79F7C501DF91CF911F910F91FF9060
:10080000EF90DF90CF90BF90AF900895FC01538D93
:10081000448D252F30E0842F90E0821B930B5417DA
:1008200010F0CF96089501970895FC01918D828D67
:10083000981761F0A28DAE0FBF2FB11D5D968C9100
:10084000928D9F5F9F73928F90E008958FEF9FEF3F
:100850000895FC01918D828D981731F0828DE80FFB
:10086000F11D858D90E008958FEF9FEF0895FC01B5
:10087000918D228D892F90E0805C9F4F821B910982
:100880008F739927089587E692E00E94370421E04C
:10089000892B09F420E0822F0895FC01A48DA80F74
:1008A000B92FB11DA35ABF4F2C91848D90E00196B2
:1008B0008F739927848FA689B7892C93A089B189D2
:1008C0008C91837080648C93938D848D981306C073
:1008D0000288F389E02D80818F7D80830895EF92D7
:1008E000FF920F931F93CF93DF93EC0181E0888FEA
:1008F0009B8D8C8D98131AC0E889F989808185FFBA
:1009000015C09FB7F894EE89FF896083E889F9895B
:1009100080818370806480839FBF81E090E0DF915D
:10092000CF911F910F91FF90EF900895F62E0B8DB0
:1009300010E00F5F1F4F0F731127E02E8C8D8E116B
:100940000CC00FB607FCFACFE889F989808185FFD2
:10095000F5CFCE010E944D04F1CFEB8DEC0FFD2FB2
:10096000F11DE35AFF4FF0829FB7F8940B8FEA898D
:10097000FB8980818062CFCFCF93DF93EC01888D9C
:100980008823B9F0AA89BB89E889F9898C9185FD0A
:1009900003C0808186FD0DC00FB607FCF7CF8C9198
:1009A00085FFF2CF808185FFEDCFCE010E944D04FF
:1009B000E9CFDF91CF91089580E090E0892B29F075
:1009C0000E94430481110E94000080E090E0892B86
:1009D00049F080E090E0892B29F00E94000081110D
:1009E0000E94000080E090E0892B49F080E090E0D8
:1009F000892B29F00E94000081110E94000080E0F4
:100A000090E0892B49F080E090E0892B29F00E944A
:100A1000000081110C9400000895FC010190002059
:100A2000E9F73197AF01481B590BBC0187E692E00B
:100A30000C94D9038F929F92AF92BF920F931F9302
:100A4000CF93DF93CDB7DEB7A1970FB6F894DEBF93
:100A50000FBECDBF19A2423008F44AE08E010F5DEF
:100A60001F4F842E912CB12CA12CA50194010E9422
:100A7000C50BE62FB901CA01EA30F4F4E05DD801F4
:100A8000EE938D01232B242B252B79F790E080E02A
:100A9000109719F0CD010E940D05A1960FB6F8949C
:100AA000DEBF0FBECDBFDF91CF911F910F91BF90E1
:100AB000AF909F908F900895E95CE1CFCF92DF9245
:100AC000EF92FF92CF93DF936C01990FEE08FF082E
:100AD000F7FE19C06DE287E692E00E946F04EC0118
:100AE00066277727CB016C197D098E099F094AE09B
:100AF0000E941A058C0F9D1FDF91CF91FF90EF9000
:100B0000DF90CF9008954AE0C701B601DF91CF9101
:100B1000FF90EF90DF90CF900C941A054F925F9268
:100B20006F927F928F929F92AF92BF92CF92DF92FD
:100B3000EF92FF920F931F93CF936B017C01742E62
:100B4000AC019B010E94C00B882399F082E192E0E6
:100B5000CF911F910F91FF90EF90DF90CF90BF90BA
:100B6000AF909F908F907F906F905F904F900C947C
:100B70000D0546015701E894B7F82FEF3FEF4FE717
:100B80005FE7C501B4010E94C00B81110DC02FEFBA
:100B90003FEF4FE75FE7C501B4010E94F609181661
:100BA0001CF486E192E0D4CF2FEF3FEF4FE75FE4F4
:100BB000C701B6010E944E0B18161CF48AE192E0A0
:100BC000C7CF2FEF3FEF4FE75FECC701B6010E94A1
:100BD000F60987FDF3CF20E030E0A901C701B60197
:100BE0000E94F60910E000E087FF0AC06DE287E688
:100BF00092E00E946F048C01F7FAF094F7F8F094F9
:100C0000C0E060E070E080E09FE37C1641F020E00F
:100C100030E040E251E40E94FB09CF5FF6CFA7012C
:100C200096010E948A092B013C010E946D0A4B012A
:100C30005C014AE00E941A057C01E00EF11ECC2303
:100C4000C1F1C501B4010E949C0A9B01AC01C30122
:100C5000B2010E9489094B015C016EE287E692E0D5
:100C60000E946F04E80EF91EC15018F120E030E038
:100C700040E251E4C501B4010E94530B2B013C0139
:100C80000E946D0A4B01B12CA12C4AE0C501B401B0
:100C90000E941A05E80EF91EC501B4010E949C0AC3
:100CA0009B01AC01C301B2010E9489094B015C01A7
:100CB000DBCFC701CF911F910F91FF90EF90DF9095
:100CC000CF90BF90AF909F908F907F906F905F90EC
:100CD0004F9008951F920F920FB60F9211242F93E9
:100CE0003F938F939F93AF93BF93809163029091B3
:100CF0006402A0916502B091660230915E0223E029
:100D0000230F2D3758F50196A11DB11D20935E02CA
:100D10008093630290936402A0936502B09366028D
:100D200080915F0290916002A0916102B091620295
:100D30000196A11DB11D80935F0290936002A09364
:100D40006102B0936202BF91AF919F918F913F91E9
:100D50002F910F900FBE0F901F90189526E8230F2C
:100D60000296A11DB11DD2CF1F920F920FB60F9206
:100D700011240BB60F922F933F934F935F936F9372
:100D80007F938F939F93AF93BF93EF93FF9387E6E8
:100D900092E00E944D04FF91EF91BF91AF919F911E
:100DA0008F917F916F915F914F913F912F910F9014
:100DB0000BBE0F900FBE0F901F9018951F920F92B1
:100DC0000FB60F9211240BB60F922F938F939F9310
:100DD000EF93FF93E0917702F09178028081E091A8
:100DE0007D02F0917E0282FD1DC090818091800283
:100DF0008F5F8F7320918102821741F0E091800212
:100E0000F0E0E959FD4F958F80938002FF91EF91BB
:100E10009F918F912F910F900BBE0F900FBE0F904F
:100E20001F9018958081F2CFE7E6F2E013821282DC
:100E300088EE93E0A0E0B0E084839583A683B78337
:100E400084E092E09183808385EC90E095878487AD
:100E500084EC90E09787868780EC90E0918B808B84
:100E600081EC90E0938B828B82EC90E0958B848B6D
:100E700086EC90E0978B868B118E128E138E148EDB
:100E8000A4E0B3E087E015968C9315978BE0169657
:100E90008C931697E9E2F2E0E4911796EC9317979A
:100EA000E3EEF1E0E4911896EC93189740E85EE3E6
:100EB00060E070E01D964D935D936D937C93509729
:100EC0000895CF93DF9300D01F92CDB7DEB778940B
:100ED00084B5826084BD84B5816084BD85B582603F
:100EE00085BD85B5816085BD80916E0081608093F0
:100EF0006E00109281008091810082608093810059
:100F00008091810081608093810080918000816068
:100F1000809380008091B10084608093B1008091C3
:100F2000B00081608093B0008091910082608093D6
:100F30009100809191008160809391008091900058
:100F40008160809390008091A10082608093A100D5
:100F50008091A10081608093A1008091A0008160B8
:100F60008093A00080912101826080932101809173
:100F70002101816080932101809120018160809313
:100F8000200180917A00846080937A0080917A00B9
:100F9000826080937A0080917A00816080937A00E9
:100FA00080917A00806880937A001092C100E0916D
:100FB0007702F091780282E08083E0917302F091F1
:100FC00074021082E0917502F09176028FEC8083BA
:100FD00010927F02E0917B02F0917C0286E0808398
:100FE000E0917902F0917A02808180618083E091C2
:100FF0007902F0917A02808188608083E0917902A1
:10100000F0917A02808180688083E0917902F0918A
:101010007A0280818F7D808362E0809109030E9443
:10102000A0012FB7F8948091630290916402A0917F
:101030006502B09166022FBF805D9740A109B1099A
:1010400080930D0390930E03A0930F03B0931003AE
:1010500087E3809316038EE192E00E940D0584E5FC
:1010600092E00E940D0580915C0290915D029C834C
:101070008B83853F91400CF024C186E30E94D1010F
:1010800087E30E94D10188E30E94D10189E30E9495
:10109000D10163E070E080E090E00E940D0286E301
:1010A0000E94D1015C0187E30E94D1018C0188E399
:1010B0000E94D1014C0189E30E94D1019A83898366
:1010C0000E943F02882349F080910A038B3028F068
:1010D0008D3050F085518230C8F1412C512C30ECCC
:1010E000632E3FE7732E1EC06091050370E090E011
:1010F00080E00E949E0A2DEC3CEC4CEC5DE30E94EB
:10110000530B6B017C016091040370E090E080E080
:101110000E949E0A9B01AC01C701B6010E948A0988
:101120002B013C010E943F02882309F474C0809186
:101130000A038C3009F4C8C0D8F48B3091F1C12C6B
:10114000D12C90ECE92E9FE7F92E55C06091040355
:101150007091050376276727762790E080E00E944C
:101160009C0A2DEC3CEC4CEC5DE30E94530BD8CF79
:101170008551823020F730900603632D70E0762F82
:10118000662766277F7780910703682B90E080E0D1
:101190000E949C0A2DEC3CEC4CEC5DE30E94530B4E
:1011A000AFC06091060370E090E080E00E949C0A6E
:1011B0006B017C013090070337FE0AC0AC019B0134
:1011C00060E070E080E89FEB0E9489096B017C0180
:1011D000632D6F7070E090E080E00E949E0A2DEC1D
:1011E0003CEC4CEC5DE30E94530BA70196010E947E
:1011F0008A096B017C01A3019201C301B2010E9423
:10120000C00B811108C0A7019601C701B6010E9459
:10121000C00B882341F0C12CD12C80E8E82E8FEB45
:10122000F82E260137018B819C810E945E0587E59F
:1012300092E00E940D05C5010E945E0587E592E0DF
:101240000E940D05C8010E945E0587E592E00E949C
:101250000D05C4010E945E0587E592E00E940D0520
:1012600089819A810E945E0587E592E00E940D05C2
:1012700042E0C301B2010E948E0587E592E00E9420
:101280000D0542E0C701B6010E948E0587E592E098
:101290000E940D0589E592E00E940D0584E592E02B
:1012A0000E940D0580915C0290915D0201969093E1
:1012B0005D0280935C0268EC70E080E090E00E9448
:1012C0000D020E94DC04CFCE30900603632D70E047
:1012D00090E080E00E949C0A6B017C016091070312
:1012E0006F7070E090E080E00E949E0A2DEC3CEC74
:1012F0004CEC5DE30E94530BA70196010E948A0902
:101300006B017C0137FE77CFF7FAF094F7F8F09491
:1013100072CF5058BB27AA270E94A1090C94140B26
:101320000E94060B38F00E940D0B20F039F49F3F0D
:1013300019F426F40C94030B0EF4E095E7FB0C94DF
:10134000FD0AE92F0E94250B58F3BA1762077307AD
:101350008407950720F079F4A6F50C94470B0EF45A
:10136000E0950B2EBA2FA02D0B01B90190010C01B5
:10137000CA01A0011124FF27591B99F0593F50F4CD
:10138000503E68F11A16F040A22F232F342F442725
:10139000585FF3CF469537952795A795F04053951D
:1013A000C9F77EF41F16BA0B620B730B840BBAF0ED
:1013B0009150A1F0FF0FBB1F661F771F881FC2F758
:1013C0000EC0BA0F621F731F841F48F4879577956C
:1013D0006795B795F7959E3F08F0B0CF9395880F26
:1013E00008F09927EE0F9795879508950E94D90ADE
:1013F00008F481E008950E940F0A0C94140B0E94D7
:101400000D0B58F00E94060B40F029F45F3F29F0C5
:101410000C94FD0A51110C94480B0C94030B0E9480
:10142000250B68F39923B1F3552391F3951B550BC5
:10143000BB27AA2762177307840738F09F5F5F4FA7
:10144000220F331F441FAA1FA9F335D00E2E3AF0E6
:10145000E0E832D091505040E695001CCAF72BD0FE
:10146000FE2F29D0660F771F881FBB1F261737074F
:101470004807AB07B0E809F0BB0B802DBF01FF2781
:1014800093585F4F3AF09E3F510578F00C94FD0A57
:101490000C94480B5F3FE4F3983ED4F38695779520
:1014A0006795B795F7959F5FC9F7880F911D96953A
:1014B000879597F90895E1E0660F771F881FBB1F96
:1014C000621773078407BA0720F0621B730B840B43
:1014D000BA0BEE1F88F7E09508950E942D0B88F057
:1014E0009F5798F0B92F9927B751B0F0E1F0660FE8
:1014F000771F881F991F1AF0BA95C9F714C0B13029
:1015000091F00E94470BB1E008950C94470B672FB0
:10151000782F8827B85F39F0B93FCCF38695779557
:101520006795B395D9F73EF4909580957095619540
:101530007F4F8F4F9F4F0895E89409C097FB3EF46B
:1015400090958095709561957F4F8F4F9F4F992310
:10155000A9F0F92F96E9BB279395F695879577958E
:101560006795B795F111F8CFFAF4BB0F11F460FF4E
:101570001BC06F5F7F4F8F4F9F4F16C0882311F0A6
:1015800096E911C0772321F09EE8872F762F05C0BA
:10159000662371F096E8862F70E060E02AF09A9555
:1015A000660F771F881FDAF7880F9695879597F94A
:1015B0000895990F0008550FAA0BE0E8FEEF1616E4
:1015C0001706E807F907C0F012161306E407F50737
:1015D00098F0621B730B840B950B39F40A2661F0AB
:1015E000232B242B252B21F408950A2609F4A1404E
:1015F000A6958FEF811D811D089597F99F6780E85B
:1016000070E060E008959FEF80EC089500240A9454
:101610001616170618060906089500240A941216CD
:101620001306140605060895092E0394000C11F400
:10163000882352F0BB0F40F4BF2B11F460FF04C0AD
:101640006F5F7F4F8F4F9F4F089557FD9058440F06
:10165000551F59F05F3F71F04795880F97FB991F11
:1016600061F09F3F79F087950895121613061406CE
:10167000551FF2CF4695F1DF08C01616170618065B
:10168000991FF1CF86957105610508940895E89436
:10169000BB2766277727CB0197F908950E94D90ABF
:1016A00008F48FEF08950E94660B0C94140B0E94AF
:1016B000060B38F00E940D0B20F0952311F00C94CE
:1016C000FD0A0C94030B11240C94480B0E94250B6B
:1016D00070F3959FC1F3950F50E0551F629FF00185
:1016E000729FBB27F00DB11D639FAA27F00DB11D9E
:1016F000AA1F649F6627B00DA11D661F829F222727
:10170000B00DA11D621F739FB00DA11D621F839FAD
:10171000A00D611D221F749F3327A00D611D231F83
:10172000849F600D211D822F762F6A2F11249F57D1
:1017300050409AF0F1F088234AF0EE0FFF1FBB1FD4
:10174000661F771F881F91505040A9F79E3F510593
:1017500080F00C94FD0A0C94480B5F3FE4F3983E34
:10176000D4F3869577956795B795F795E7959F5F3D
:10177000C1F7FE2B880F911D9695879597F90895CF
:101780000E94D90A880B990B0895A1E21A2EAA1B70
:10179000BB1BFD010DC0AA1FBB1FEE1FFF1FA21721
:1017A000B307E407F50720F0A21BB30BE40BF50B1E
:1017B000661F771F881F991F1A9469F760957095A7
:1017C000809590959B01AC01BD01CF010895EE0F6E
:1017D000FF1F881F8BBF0790F691E02D1994F89496
:0217E000FFCF39
:1017E200000000006F04D9030604BC04370415048A
:1017F20029046E616E00696E66006F766600636F23
:10180200756E7465722C6D71322C6D71332C6D7125
:10181200342C6D71362C68756D69646974792C7419
:10182200656D70657261747572652C707265736531
:0C1832006E6365000D0A002C0030000001
:00000001FF
